:10000000000001202D0700009D0700009F07000051
:10001000A1070000A3070000A507000000000000E2
:10002000000000000000000000000000A707000022
:10003000A907000000000000AB070000AD070000AA
:10004000AF070000AF070000AF070000AF070000D8
:10005000AF070000AF070000AF070000AF070000C8
:10006000AF070000AF070000AF070000AF070000B8
:10007000AF070000AF070000AF070000AF070000A8
:10008000AF070000AF070000AF070000AF07000098
:10009000AF070000AF070000AF070000AF07000088
:1000A000AF070000AF070000AF070000AF07000078
:1000B000AF070000AF0700000000000000000000D4
:1000C000AF070000AF070000AF070000AF07000058
:1000D000AF070000AF070000AF07000000000000FE
:1000E0000000000000000000000000000000000010
:1000F0000000000000000000000000000000000000
:1001000000000000000000000000000000000000EF
:1001100000000000000000000000000000000000DF
:1001200000000000000000000000000000000000CF
:1001300000000000000000000000000000000000BF
:1001400000000000000000000000000000000000AF
:10015000000000000000000000000000000000009F
:10016000000000000000000000000000000000008F
:10017000000000000000000000000000000000007F
:10018000000000000000000000000000000000006F
:10019000000000000000000000000000000000005F
:1001A000000000000000000000000000000000004F
:1001B000000000000000000000000000000000003F
:1001C000000000000000000000000000000000002F
:1001D000000000000000000000000000000000001F
:1001E000000000000000000000000000000000000F
:1001F00000000000000000000000000000000000FF
:0402000010000020CA
:08020400900000000100000061
:10020C000348044B834202D0034B03B11847704799
:10021C00380400203804002000000000054806497E
:10022C000B1AD90F01EBA301491002D0034B03B1F8
:10023C0018477047380400203804002000000000E4
:10024C0010B5064C237843B9FFF7DAFF044B13B112
:10025C000448AFF300800123237010BD3804002044
:10026C0000000000380A000008B5044B1BB104491B
:10027C000448AFF30080BDE80840CFE70000000061
:10028C003C040020380A0000A3F5803A704700BFF8
:10029C00154B002B08BF114B9D46FFF7F5FF0021B6
:1002AC008B460F461148124A121A00F0CFFA0C4B2B
:1002BC00002B00D098470B4B002B00D09847002008
:1002CC00002104000D000B4800F06CFA00F09AFAC3
:1002DC002000290000F010F800F06AFA0000080075
:1002EC000000000000000000000001203804002085
:1002FC0054040020DD070000112306E001229A407F
:10030C004FF0A041C1F818250133142BF6DD4FF046
:10031C00A0430C22C3F83427C3F8382703E042F279
:10032C001073013BFDD14FF0A043D3F8103513F4FB
:10033C00005F07D14FF0A042D2F8083543F4F01318
:10034C00C2F808354FF0A043D3F8103513F4804FA2
:10035C00E5D14FF0A042D2F80C3543F4F013C2F8BB
:10036C000C35DCE7064B1B68B3F1FF3F03D0062BC3
:10037C0004D000207047034B1B78F8E7012070472E
:10038C0030010010E00F00F0094B1A7808331B689D
:10039C00C3F30313062A01D000207047033B002B44
:1003AC0004D8DFE803F001000120704700207047FB
:1003BC00E00F00F0064B1B68B3F1FF3F03D0062B98
:1003CC0004D000207047034B1B78F8E701207047DE
:1003DC0030010010E00F00F0094B1A7808331B684D
:1003EC00C3F30313062A01D000207047033B002BF4
:1003FC0004D8DFE803F001000120704700207047AB
:10040C00E00F00F0064B1B68B3F1FF3F03D0062B47
:10041C0004D000207047034B1B78F8E7012070478D
:10042C0030010010E00F00F0094B1A7808331B68FC
:10043C00C3F30313062A01D000207047033B002BA3
:10044C0004D8DFE803F0010001207047002070475A
:10045C00E00F00F0094B1A7808331B68C3F3031341
:10046C00062A01D000207047033B002B04D8DFE89C
:10047C0003F001000120704700207047E00F00F0EE
:10048C000D4B1A68B2F1FF3F05D00C4B1B68062AC6
:10049C0008D0002070470A4B1A7808331B68C3F346
:1004AC000313F4E7033B012B04D8DFE803F001014D
:1004BC0000207047012070473001001034010010FB
:1004CC00E00F00F0064B1B68B3F1FF3F03D0062B87
:1004DC0004D000207047034B1B78F8E701207047CD
:1004EC0030010010E00F00F0064B1B68B3F1FF3F2A
:1004FC0003D0062B04D000207047034B1B78F8E781
:10050C000120704730010010E00F00F0084B1B6811
:10051C00084A1268062B01D000207047052A03D820
:10052C00032A03D300207047012070470120704735
:10053C003001001034010010084B1B68084A126887
:10054C00062B01D000207047062A03D8032A03D3B8
:10055C0000207047012070470120704730010010C7
:10056C0034010010014B024A1A6070470000002051
:10057C000090D00308B5FFF7F5FE28B15B4B1B6864
:10058C00C3F304235A4A1360FFF7FEFE10B1594B14
:10059C00594A1A60FFF70EFF28B1584B1B68C3F37A
:1005AC004233574A1360FFF717FF20B1554AD368FF
:1005BC0023F08073D360FFF725FF40B14FF08043E9
:1005CC000022C3F80C21C3F81021C3F83825FFF71B
:1005DC002BFF10B14C4B03221A60FFF73BFF58B1B5
:1005EC004A4B05221A60783301221A60703B0022B4
:1005FC001A60043B3F221A60FFF742FF002846D0E6
:10060C004FF08052D2F80414414BC3F82015D2F8A5
:10061C000814C3F82415D2F80C14C3F82815D2F812
:10062C001014C3F82C15D2F81414C3F83015D2F8E2
:10063C001814C3F83415D2F81C14C3F84015D2F8AA
:10064C002014C3F84415D2F82414C3F84815D2F872
:10065C002814C3F84C15D2F82C14C3F85015D2F842
:10066C003014C3F85415D2F83414C3F86015D2F80A
:10067C003814C3F86415D2F83C14C3F86815D2F8D2
:10068C004014C3F86C15D2F84424C3F87025FFF756
:10069C0019FF28B11F4B1B6803F04F031E4A136050
:1006AC00FFF722FF60B14FF08043D3F8003413F012
:1006BC00010F05D04FF080436FF00102C3F8002406
:1006CC00FFF724FF20B1154A136843F480631360CD
:1006DC00FFF732FF38B14FF01023D3F808224FF058
:1006EC008043C3F85825FFF73DFF08BD24030010D5
:1006FC004035014074C007400DF0ADBA4402001003
:10070C003C050040F0ED00E0A00500401056004014
:10071C0000C0004058020010E40E00403C1700409E
:10072C000F49104A104B00F010F81049104A114BA9
:10073C0000F00BF81049114A114B00F006F8114962
:10074C00114A124B00F001F806E0521A03DD043A8C
:10075C0098588850FBDC7047FFF70CFFFFF798FDAB
:10076C000000002038040020840A00003804002017
:10077C0038040020BC0E000038040020380400208F
:10078C00BC0E00003804002038040020BC0E000011
:10079C00FEE7FEE7FEE7FEE7FEE7FEE7FEE7FEE725
:1007AC00FEE7FEE7002301461A46184600F09EB805
:1007BC0008B50021044600F0CDF8044B1868C36B53
:1007CC0003B19847204600F01DF900BF000200005D
:1007DC0038B50A4C0A4D641BA4100AD004F18043AE
:1007EC00013B05EB8305013C55F804399847002C77
:1007FC00F9D1BDE8384000F011B900BF380A00004B
:10080C00340A000070B50D4E0D4D761BB61006D097
:10081C000024013455F8043B9847A642F9D1094EFF
:10082C00094D761B00F0F0F8B61006D00024013408
:10083C0055F8043B9847A642F9D170BD200A000038
:10084C00200A0000280A0000200A0000F0B48607E5
:10085C0046D0541E002A3CD0CAB2034602E014F122
:10086C00FF3436D303F8012B9D07F8D1032C29D97B
:10087C00CDB245EA05250F2C45EA054533D9A4F13F
:10088C001006360903F1200707EB061703F11002D7
:10089C0042E9045542E902551032BA42F8D1721CB1
:1008AC0014F00C0F03EB021204F00F0613D0331FDD
:1008BC0023F003030433134442F8045B9342FBD14B
:1008CC0006F003042CB1C9B21C4403F8011B9C4272
:1008DC00FBD1F0BC704734461346002CF3D1F8E73B
:1008EC0014460346C2E71A462646E0E7F0B4184C15
:1008FC002568D5F8484114B365681F2D24DC38B938
:10090C00AB1C0135656044F823100020F0BC704727
:10091C0004EB85060127C6F8882007FA05F2D4F8FF
:10092C008871022847EA0207C4F88871C6F80831B2
:10093C00E6D1D4F88C311A43C4F88C21E0E705F5E4
:10094C00A674C5F84841D7E74FF0FF30DEE700BF8B
:10095C00000200002DE9F04F244B83B0D3F800B017
:10096C0001908A464FF00008DBF8486196B1746834
:10097C00651E0FD4013406EB84040127BAF1000F75
:10098C000BD0D4F80031534507D0013D6B1CA4F1BA
:10099C000404F3D103B0BDE8F08F73682268013B07
:1009AC00AB420CBF7560C4F80080002AEDD0D6F8BD
:1009BC008811D6F8049007FA05FC1CEA010F08D13F
:1009CC00904772684A45CFD1DBF84831B342DCD04E
:1009DC00CAE7D6F88C31D4F880101CEA030F02D188
:1009EC0001989047EDE708469047EAE700020000BF
:1009FC00024B13B10248FFF7D5BE70470000000050
:100A0C00DD070000FEE700BFF8B500BFF8BC08BC6E
:100A1C009E467047FD09000075020000F8B500BF46
:100A2C00F8BC08BC9E4670474D0200000000000058
:100A3C00840A0000000000200E010000BC0E000023
:100A4C003804002000000000BC0E00003804002018
:100A5C0000000000BC0E0000380400200000000064
:100A6C00380400200700000054040020000000009F
:080A7C005404002000000000FA
:100A84000090D003000000001000002000000000CF
:100A940000000000FC02002064030020CC030020BE
:100AA4000000000000000000000000000000000042
:100AB4000000000000000000000000000000000032
:100AC4000000000000000000000000000000000022
:100AD4000000000000000000000000000000000012
:100AE4000000000000000000000000000000000002
:100AF40000000000000000000000000000000000F2
:100B040000000000000000000000000000000000E1
:100B140000000000000000000000000000000000D1
:100B240000000000000000000000000000000000C1
:100B340000000000000000000100000000000000B0
:100B44000E33CDAB34126DE6ECDE05000B00000075
:100B54000000000000000000000000000000000091
:100B64000000000000000000000000000000000081
:100B74000000000000000000000000000000000071
:100B84000000000000000000000000000000000061
:040000030000072DC5
:00000001FF
